{
  "contractName": "Forwarder",
  "abi": [
    {
      "inputs": [],
      "stateMutability": "nonpayable",
      "type": "constructor"
    },
    {
      "anonymous": false,
      "inputs": [
        {
          "indexed": true,
          "internalType": "bytes32",
          "name": "domainSeparator",
          "type": "bytes32"
        },
        {
          "indexed": false,
          "internalType": "bytes",
          "name": "domainValue",
          "type": "bytes"
        }
      ],
      "name": "DomainRegistered",
      "type": "event"
    },
    {
      "anonymous": false,
      "inputs": [
        {
          "indexed": true,
          "internalType": "bytes32",
          "name": "typeHash",
          "type": "bytes32"
        },
        {
          "indexed": false,
          "internalType": "string",
          "name": "typeStr",
          "type": "string"
        }
      ],
      "name": "RequestTypeRegistered",
      "type": "event"
    },
    {
      "inputs": [],
      "name": "EIP712_DOMAIN_TYPE",
      "outputs": [
        {
          "internalType": "string",
          "name": "",
          "type": "string"
        }
      ],
      "stateMutability": "view",
      "type": "function"
    },
    {
      "inputs": [],
      "name": "GENERIC_PARAMS",
      "outputs": [
        {
          "internalType": "string",
          "name": "",
          "type": "string"
        }
      ],
      "stateMutability": "view",
      "type": "function"
    },
    {
      "inputs": [
        {
          "internalType": "bytes32",
          "name": "",
          "type": "bytes32"
        }
      ],
      "name": "domains",
      "outputs": [
        {
          "internalType": "bool",
          "name": "",
          "type": "bool"
        }
      ],
      "stateMutability": "view",
      "type": "function"
    },
    {
      "inputs": [
        {
          "internalType": "bytes32",
          "name": "",
          "type": "bytes32"
        }
      ],
      "name": "typeHashes",
      "outputs": [
        {
          "internalType": "bool",
          "name": "",
          "type": "bool"
        }
      ],
      "stateMutability": "view",
      "type": "function"
    },
    {
      "stateMutability": "payable",
      "type": "receive"
    },
    {
      "inputs": [
        {
          "internalType": "address",
          "name": "from",
          "type": "address"
        }
      ],
      "name": "getNonce",
      "outputs": [
        {
          "internalType": "uint256",
          "name": "",
          "type": "uint256"
        }
      ],
      "stateMutability": "view",
      "type": "function"
    },
    {
      "inputs": [
        {
          "components": [
            {
              "internalType": "address",
              "name": "from",
              "type": "address"
            },
            {
              "internalType": "address",
              "name": "to",
              "type": "address"
            },
            {
              "internalType": "uint256",
              "name": "value",
              "type": "uint256"
            },
            {
              "internalType": "uint256",
              "name": "gas",
              "type": "uint256"
            },
            {
              "internalType": "uint256",
              "name": "nonce",
              "type": "uint256"
            },
            {
              "internalType": "bytes",
              "name": "data",
              "type": "bytes"
            }
          ],
          "internalType": "struct IForwarder.ForwardRequest",
          "name": "req",
          "type": "tuple"
        },
        {
          "internalType": "bytes32",
          "name": "domainSeparator",
          "type": "bytes32"
        },
        {
          "internalType": "bytes32",
          "name": "requestTypeHash",
          "type": "bytes32"
        },
        {
          "internalType": "bytes",
          "name": "suffixData",
          "type": "bytes"
        },
        {
          "internalType": "bytes",
          "name": "sig",
          "type": "bytes"
        }
      ],
      "name": "verify",
      "outputs": [],
      "stateMutability": "view",
      "type": "function"
    },
    {
      "inputs": [
        {
          "components": [
            {
              "internalType": "address",
              "name": "from",
              "type": "address"
            },
            {
              "internalType": "address",
              "name": "to",
              "type": "address"
            },
            {
              "internalType": "uint256",
              "name": "value",
              "type": "uint256"
            },
            {
              "internalType": "uint256",
              "name": "gas",
              "type": "uint256"
            },
            {
              "internalType": "uint256",
              "name": "nonce",
              "type": "uint256"
            },
            {
              "internalType": "bytes",
              "name": "data",
              "type": "bytes"
            }
          ],
          "internalType": "struct IForwarder.ForwardRequest",
          "name": "req",
          "type": "tuple"
        },
        {
          "internalType": "bytes32",
          "name": "domainSeparator",
          "type": "bytes32"
        },
        {
          "internalType": "bytes32",
          "name": "requestTypeHash",
          "type": "bytes32"
        },
        {
          "internalType": "bytes",
          "name": "suffixData",
          "type": "bytes"
        },
        {
          "internalType": "bytes",
          "name": "sig",
          "type": "bytes"
        }
      ],
      "name": "execute",
      "outputs": [
        {
          "internalType": "bool",
          "name": "success",
          "type": "bool"
        },
        {
          "internalType": "bytes",
          "name": "ret",
          "type": "bytes"
        }
      ],
      "stateMutability": "payable",
      "type": "function"
    },
    {
      "inputs": [
        {
          "internalType": "string",
          "name": "typeName",
          "type": "string"
        },
        {
          "internalType": "string",
          "name": "typeSuffix",
          "type": "string"
        }
      ],
      "name": "registerRequestType",
      "outputs": [],
      "stateMutability": "nonpayable",
      "type": "function"
    },
    {
      "inputs": [
        {
          "internalType": "string",
          "name": "name",
          "type": "string"
        },
        {
          "internalType": "string",
          "name": "version",
          "type": "string"
        }
      ],
      "name": "registerDomainSeparator",
      "outputs": [],
      "stateMutability": "nonpayable",
      "type": "function"
    },
    {
      "inputs": [
        {
          "components": [
            {
              "internalType": "address",
              "name": "from",
              "type": "address"
            },
            {
              "internalType": "address",
              "name": "to",
              "type": "address"
            },
            {
              "internalType": "uint256",
              "name": "value",
              "type": "uint256"
            },
            {
              "internalType": "uint256",
              "name": "gas",
              "type": "uint256"
            },
            {
              "internalType": "uint256",
              "name": "nonce",
              "type": "uint256"
            },
            {
              "internalType": "bytes",
              "name": "data",
              "type": "bytes"
            }
          ],
          "internalType": "struct IForwarder.ForwardRequest",
          "name": "req",
          "type": "tuple"
        },
        {
          "internalType": "bytes32",
          "name": "requestTypeHash",
          "type": "bytes32"
        },
        {
          "internalType": "bytes",
          "name": "suffixData",
          "type": "bytes"
        }
      ],
      "name": "_getEncoded",
      "outputs": [
        {
          "internalType": "bytes",
          "name": "",
          "type": "bytes"
        }
      ],
      "stateMutability": "pure",
      "type": "function"
    }
  ],
  "bytecode": "0x60806040523480156200001157600080fd5b5060606040518060800160405280604a815260200162001f62604a9139604051602001620000409190620001da565b604051602081830303815290604052905062000062816200006960201b60201c565b506200029f565b600081805190602001209050600160008083815260200190815260200160002060006101000a81548160ff021916908315150217905550807f64d6bce64323458c44643c51fe45113efc882082f7b7fd5f09f0d69d2eedb20283604051620000d291906200020d565b60405180910390a25050565b6000620000eb8262000231565b620000f781856200023c565b93506200010981856020860162000258565b62000114816200028e565b840191505092915050565b60006200012c8262000231565b6200013881856200024d565b93506200014a81856020860162000258565b80840191505092915050565b600062000165600f836200024d565b91507f466f7277617264526571756573742800000000000000000000000000000000006000830152600f82019050919050565b6000620001a76001836200024d565b91507f29000000000000000000000000000000000000000000000000000000000000006000830152600182019050919050565b6000620001e78262000156565b9150620001f582846200011f565b9150620002028262000198565b915081905092915050565b60006020820190508181036000830152620002298184620000de565b905092915050565b600081519050919050565b600082825260208201905092915050565b600081905092915050565b60005b83811015620002785780820151818401526020810190506200025b565b8381111562000288576000848401525b50505050565b6000601f19601f8301169050919050565b611cb380620002af6000396000f3fe6080604052600436106100955760003560e01c8063c3f28abd11610059578063c3f28abd14610198578063c45c2674146101c3578063c722f17714610200578063cdf5735a1461023d578063d9210be51461026e5761009c565b8063066a310c146100a157806321fe98df146100cc5780632d0335ab14610109578063992d82c3146101465780639c7b45921461016f5761009c565b3661009c57005b600080fd5b3480156100ad57600080fd5b506100b6610297565b6040516100c39190611899565b60405180910390f35b3480156100d857600080fd5b506100f360048036038101906100ee9190610f4d565b6102b3565b6040516101009190611794565b60405180910390f35b34801561011557600080fd5b50610130600480360381019061012b9190610f24565b6102d3565b60405161013d91906119db565b60405180910390f35b34801561015257600080fd5b5061016d60048036038101906101689190610feb565b61031c565b005b34801561017b57600080fd5b5061019660048036038101906101919190610f76565b6103c3565b005b3480156101a457600080fd5b506101ad6104b9565b6040516101ba9190611899565b60405180910390f35b3480156101cf57600080fd5b506101ea60048036038101906101e591906110b3565b6104d5565b6040516101f79190611877565b60405180910390f35b34801561020c57600080fd5b5061022760048036038101906102229190610f4d565b61054c565b6040516102349190611794565b60405180910390f35b61025760048036038101906102529190610feb565b61056c565b6040516102659291906117af565b60405180910390f35b34801561027a57600080fd5b5061029560048036038101906102909190610f76565b610720565b005b6040518060800160405280604a8152602001611be2604a913981565b60006020528060005260406000206000915054906101000a900460ff1681565b6000600260008373ffffffffffffffffffffffffffffffffffffffff1673ffffffffffffffffffffffffffffffffffffffff168152602001908152602001600020549050919050565b6103258761087e565b6103ba87878787878080601f016020809104026020016040519081016040528093929190818152602001838380828437600081840152601f19601f8201169050808301925050505050505086868080601f016020809104026020016040519081016040528093929190818152602001838380828437600081840152601f19601f8201169050808301925050505050505061090a565b50505050505050565b60004690506060604051806080016040528060528152602001611c2c605291398051906020012086866040516103fa929190611659565b60405180910390208585604051610412929190611659565b604051809103902084306040516020016104309594939291906117df565b6040516020818303038152906040529050600081805190602001209050600180600083815260200190815260200160002060006101000a81548160ff021916908315150217905550807f4bc68689cbe89a4a6333a3ab0a70093874da3e5bfb71e93102027f3f073687d8836040516104a89190611877565b60405180910390a250505050505050565b604051806080016040528060528152602001611c2c6052913981565b606082846000015185602001518660400151876060015188608001518960a001518051906020012060405160200161051296959493929190611733565b6040516020818303038152906040528360405160200161053493929190611624565b60405160208183030381529060405290509392505050565b60016020528060005260406000206000915054906101000a900460ff1681565b600060606105798961087e565b61060e89898989898080601f016020809104026020016040519081016040528093929190818152602001838380828437600081840152601f19601f8201169050808301925050505050505088888080601f016020809104026020016040519081016040528093929190818152602001838380828437600081840152601f19601f8201169050808301925050505050505061090a565b61061789610a93565b886020015173ffffffffffffffffffffffffffffffffffffffff1689606001518a604001518b60a001518c60000151604051602001610657929190611689565b6040516020818303038152906040526040516106739190611672565b600060405180830381858888f193505050503d80600081146106b1576040519150601f19603f3d011682016040523d82523d6000602084013e6106b6565b606091505b508092508193505050600047111561071457886000015173ffffffffffffffffffffffffffffffffffffffff166108fc479081150290604051600060405180830381858888f19350505050158015610712573d6000803e3d6000fd5b505b97509795505050505050565b60005b8484905081101561082957600085858381811061073c57fe5b9050013560f81c60f81b90507f2800000000000000000000000000000000000000000000000000000000000000817effffffffffffffffffffffffffffffffffffffffffffffffffffffffffffff1916141580156107dc57507f2900000000000000000000000000000000000000000000000000000000000000817effffffffffffffffffffffffffffffffffffffffffffffffffffffffffffff191614155b61081b576040517f08c379a0000000000000000000000000000000000000000000000000000000008152600401610812906118fb565b60405180910390fd5b508080600101915050610723565b50606084846040518060800160405280604a8152602001611be2604a9139858560405160200161085d9594939291906116b1565b604051602081830303815290604052905061087781610ae9565b5050505050565b806080015160026000836000015173ffffffffffffffffffffffffffffffffffffffff1673ffffffffffffffffffffffffffffffffffffffff1681526020019081526020016000205414610907576040517f08c379a00000000000000000000000000000000000000000000000000000000081526004016108fe9061191b565b60405180910390fd5b50565b6001600085815260200190815260200160002060009054906101000a900460ff1661096a576040517f08c379a00000000000000000000000000000000000000000000000000000000081526004016109619061197b565b60405180910390fd5b60008084815260200190815260200160002060009054906101000a900460ff166109c9576040517f08c379a00000000000000000000000000000000000000000000000000000000081526004016109c09061195b565b60405180910390fd5b6000846109d78786866104d5565b805190602001206040516020016109ef9291906116fc565b604051602081830303815290604052805190602001209050856000015173ffffffffffffffffffffffffffffffffffffffff16610a358383610b5c90919063ffffffff16565b73ffffffffffffffffffffffffffffffffffffffff1614610a8b576040517f08c379a0000000000000000000000000000000000000000000000000000000008152600401610a82906119bb565b60405180910390fd5b505050505050565b60026000826000015173ffffffffffffffffffffffffffffffffffffffff1673ffffffffffffffffffffffffffffffffffffffff1681526020019081526020016000206000815480929190600101919050555050565b600081805190602001209050600160008083815260200190815260200160002060006101000a81548160ff021916908315150217905550807f64d6bce64323458c44643c51fe45113efc882082f7b7fd5f09f0d69d2eedb20283604051610b509190611899565b60405180910390a25050565b60006041825114610ba2576040517f08c379a0000000000000000000000000000000000000000000000000000000008152600401610b99906118db565b60405180910390fd5b60008060006020850151925060408501519150606085015160001a90507f7fffffffffffffffffffffffffffffff5d576e7357a4501ddfe92f46681b20a08260001c1115610c25576040517f08c379a0000000000000000000000000000000000000000000000000000000008152600401610c1c9061193b565b60405180910390fd5b601b8160ff161480610c3a5750601c8160ff16145b610c79576040517f08c379a0000000000000000000000000000000000000000000000000000000008152600401610c709061199b565b60405180910390fd5b600060018783868660405160008152602001604052604051610c9e9493929190611832565b6020604051602081039080840390855afa158015610cc0573d6000803e3d6000fd5b505050602060405103519050600073ffffffffffffffffffffffffffffffffffffffff168173ffffffffffffffffffffffffffffffffffffffff161415610d3c576040517f08c379a0000000000000000000000000000000000000000000000000000000008152600401610d33906118bb565b60405180910390fd5b8094505050505092915050565b600081359050610d5881611b9c565b92915050565b600081359050610d6d81611bb3565b92915050565b60008083601f840112610d8557600080fd5b8235905067ffffffffffffffff811115610d9e57600080fd5b602083019150836001820283011115610db657600080fd5b9250929050565b600082601f830112610dce57600080fd5b8135610de1610ddc82611a23565b6119f6565b91508082526020830160208301858383011115610dfd57600080fd5b610e08838284611b0e565b50505092915050565b60008083601f840112610e2357600080fd5b8235905067ffffffffffffffff811115610e3c57600080fd5b602083019150836001820283011115610e5457600080fd5b9250929050565b600060c08284031215610e6d57600080fd5b610e7760c06119f6565b90506000610e8784828501610d49565b6000830152506020610e9b84828501610d49565b6020830152506040610eaf84828501610f0f565b6040830152506060610ec384828501610f0f565b6060830152506080610ed784828501610f0f565b60808301525060a082013567ffffffffffffffff811115610ef757600080fd5b610f0384828501610dbd565b60a08301525092915050565b600081359050610f1e81611bca565b92915050565b600060208284031215610f3657600080fd5b6000610f4484828501610d49565b91505092915050565b600060208284031215610f5f57600080fd5b6000610f6d84828501610d5e565b91505092915050565b60008060008060408587031215610f8c57600080fd5b600085013567ffffffffffffffff811115610fa657600080fd5b610fb287828801610e11565b9450945050602085013567ffffffffffffffff811115610fd157600080fd5b610fdd87828801610e11565b925092505092959194509250565b600080600080600080600060a0888a03121561100657600080fd5b600088013567ffffffffffffffff81111561102057600080fd5b61102c8a828b01610e5b565b975050602061103d8a828b01610d5e565b965050604061104e8a828b01610d5e565b955050606088013567ffffffffffffffff81111561106b57600080fd5b6110778a828b01610d73565b9450945050608088013567ffffffffffffffff81111561109657600080fd5b6110a28a828b01610d73565b925092505092959891949750929550565b6000806000606084860312156110c857600080fd5b600084013567ffffffffffffffff8111156110e257600080fd5b6110ee86828701610e5b565b93505060206110ff86828701610d5e565b925050604084013567ffffffffffffffff81111561111c57600080fd5b61112886828701610dbd565b9150509250925092565b61113b81611aaf565b82525050565b61114a81611a9d565b82525050565b61116161115c82611a9d565b611b50565b82525050565b61117081611ac1565b82525050565b61117f81611acd565b82525050565b61119661119182611acd565b611b62565b82525050565b60006111a88385611a76565b93506111b5838584611b0e565b82840190509392505050565b60006111cc82611a4f565b6111d68185611a65565b93506111e6818560208601611b1d565b6111ef81611b7e565b840191505092915050565b600061120582611a4f565b61120f8185611a76565b935061121f818560208601611b1d565b80840191505092915050565b60006112378385611a92565b9350611244838584611b0e565b82840190509392505050565b600061125b82611a5a565b6112658185611a81565b9350611275818560208601611b1d565b61127e81611b7e565b840191505092915050565b600061129482611a5a565b61129e8185611a92565b93506112ae818560208601611b1d565b80840191505092915050565b60006112c7601883611a81565b91507f45434453413a20696e76616c6964207369676e617475726500000000000000006000830152602082019050919050565b6000611307601f83611a81565b91507f45434453413a20696e76616c6964207369676e6174757265206c656e677468006000830152602082019050919050565b6000611347601083611a81565b91507f696e76616c696420747970656e616d65000000000000000000000000000000006000830152602082019050919050565b6000611387600e83611a81565b91507f6e6f6e6365206d69736d617463680000000000000000000000000000000000006000830152602082019050919050565b60006113c7600283611a92565b91507f19010000000000000000000000000000000000000000000000000000000000006000830152600282019050919050565b6000611407600183611a92565b91507f2c000000000000000000000000000000000000000000000000000000000000006000830152600182019050919050565b6000611447600183611a92565b91507f28000000000000000000000000000000000000000000000000000000000000006000830152600182019050919050565b6000611487602283611a81565b91507f45434453413a20696e76616c6964207369676e6174757265202773272076616c60008301527f75650000000000000000000000000000000000000000000000000000000000006020830152604082019050919050565b60006114ed601d83611a81565b91507f756e7265676973746572656420726571756573742074797065686173680000006000830152602082019050919050565b600061152d601d83611a81565b91507f756e7265676973746572656420646f6d61696e20736570617261746f720000006000830152602082019050919050565b600061156d602283611a81565b91507f45434453413a20696e76616c6964207369676e6174757265202776272076616c60008301527f75650000000000000000000000000000000000000000000000000000000000006020830152604082019050919050565b60006115d3601283611a81565b91507f7369676e6174757265206d69736d6174636800000000000000000000000000006000830152602082019050919050565b61160f81611af7565b82525050565b61161e81611b01565b82525050565b60006116308286611185565b60208201915061164082856111fa565b915061164c82846111fa565b9150819050949350505050565b600061166682848661119c565b91508190509392505050565b600061167e82846111fa565b915081905092915050565b600061169582856111fa565b91506116a18284611150565b6014820191508190509392505050565b60006116be82878961122b565b91506116c98261143a565b91506116d58286611289565b91506116e0826113fa565b91506116ed82848661122b565b91508190509695505050505050565b6000611707826113ba565b91506117138285611185565b6020820191506117238284611185565b6020820191508190509392505050565b600060c0820190506117486000830189611141565b6117556020830188611141565b6117626040830187611606565b61176f6060830186611606565b61177c6080830185611606565b61178960a0830184611176565b979650505050505050565b60006020820190506117a96000830184611167565b92915050565b60006040820190506117c46000830185611167565b81810360208301526117d681846111c1565b90509392505050565b600060a0820190506117f46000830188611176565b6118016020830187611176565b61180e6040830186611176565b61181b6060830185611606565b6118286080830184611132565b9695505050505050565b60006080820190506118476000830187611176565b6118546020830186611615565b6118616040830185611176565b61186e6060830184611176565b95945050505050565b6000602082019050818103600083015261189181846111c1565b905092915050565b600060208201905081810360008301526118b38184611250565b905092915050565b600060208201905081810360008301526118d4816112ba565b9050919050565b600060208201905081810360008301526118f4816112fa565b9050919050565b600060208201905081810360008301526119148161133a565b9050919050565b600060208201905081810360008301526119348161137a565b9050919050565b600060208201905081810360008301526119548161147a565b9050919050565b60006020820190508181036000830152611974816114e0565b9050919050565b6000602082019050818103600083015261199481611520565b9050919050565b600060208201905081810360008301526119b481611560565b9050919050565b600060208201905081810360008301526119d4816115c6565b9050919050565b60006020820190506119f06000830184611606565b92915050565b6000604051905081810181811067ffffffffffffffff82111715611a1957600080fd5b8060405250919050565b600067ffffffffffffffff821115611a3a57600080fd5b601f19601f8301169050602081019050919050565b600081519050919050565b600081519050919050565b600082825260208201905092915050565b600081905092915050565b600082825260208201905092915050565b600081905092915050565b6000611aa882611ad7565b9050919050565b6000611aba82611ad7565b9050919050565b60008115159050919050565b6000819050919050565b600073ffffffffffffffffffffffffffffffffffffffff82169050919050565b6000819050919050565b600060ff82169050919050565b82818337600083830152505050565b60005b83811015611b3b578082015181840152602081019050611b20565b83811115611b4a576000848401525b50505050565b6000611b5b82611b6c565b9050919050565b6000819050919050565b6000611b7782611b8f565b9050919050565b6000601f19601f8301169050919050565b60008160601b9050919050565b611ba581611a9d565b8114611bb057600080fd5b50565b611bbc81611acd565b8114611bc757600080fd5b50565b611bd381611af7565b8114611bde57600080fd5b5056fe616464726573732066726f6d2c6164647265737320746f2c75696e743235362076616c75652c75696e74323536206761732c75696e74323536206e6f6e63652c62797465732064617461454950373132446f6d61696e28737472696e67206e616d652c737472696e672076657273696f6e2c75696e7432353620636861696e49642c6164647265737320766572696679696e67436f6e747261637429a2646970667358221220c2f33be89057ec14d1b41296d809b09b84f64322c29d3be9b8bedc7f15818bc764736f6c634300060c0033616464726573732066726f6d2c6164647265737320746f2c75696e743235362076616c75652c75696e74323536206761732c75696e74323536206e6f6e63652c62797465732064617461",
  "immutableReferences": {},
  "source": "// SPDX-License-Identifier:MIT\npragma solidity ^0.6.2;\npragma experimental ABIEncoderV2;\n\nimport \"@openzeppelin/contracts/cryptography/ECDSA.sol\";\nimport \"./IForwarder.sol\";\n\ncontract Forwarder is IForwarder {\n    using ECDSA for bytes32;\n\n    string public constant GENERIC_PARAMS = \"address from,address to,uint256 value,uint256 gas,uint256 nonce,bytes data\";\n\n    string public constant EIP712_DOMAIN_TYPE = \"EIP712Domain(string name,string version,uint256 chainId,address verifyingContract)\";\n\n    mapping(bytes32 => bool) public typeHashes;\n    mapping(bytes32 => bool) public domains;\n\n    // Nonces of senders, used to prevent replay attacks\n    mapping(address => uint256) private nonces;\n\n    // solhint-disable-next-line no-empty-blocks\n    receive() external payable {}\n\n    function getNonce(address from)\n    public view override\n    returns (uint256) {\n        return nonces[from];\n    }\n\n    constructor() public {\n\n        string memory requestType = string(abi.encodePacked(\"ForwardRequest(\", GENERIC_PARAMS, \")\"));\n        registerRequestTypeInternal(requestType);\n    }\n\n    function verify(\n        ForwardRequest memory req,\n        bytes32 domainSeparator,\n        bytes32 requestTypeHash,\n        bytes calldata suffixData,\n        bytes calldata sig)\n    external override view {\n\n        _verifyNonce(req);\n        _verifySig(req, domainSeparator, requestTypeHash, suffixData, sig);\n    }\n\n    function execute(\n        ForwardRequest memory req,\n        bytes32 domainSeparator,\n        bytes32 requestTypeHash,\n        bytes calldata suffixData,\n        bytes calldata sig\n    )\n    external payable\n    override\n    returns (bool success, bytes memory ret) {\n        _verifyNonce(req);\n        _verifySig(req, domainSeparator, requestTypeHash, suffixData, sig);\n        _updateNonce(req);\n\n        // solhint-disable-next-line avoid-low-level-calls\n        (success,ret) = req.to.call{gas : req.gas, value : req.value}(abi.encodePacked(req.data, req.from));\n        if ( address(this).balance>0 ) {\n            //can't fail: req.from signed (off-chain) the request, so it must be an EOA...\n            payable(req.from).transfer(address(this).balance);\n        }\n        return (success,ret);\n    }\n\n\n    function _verifyNonce(ForwardRequest memory req) internal view {\n        require(nonces[req.from] == req.nonce, \"nonce mismatch\");\n    }\n\n    function _updateNonce(ForwardRequest memory req) internal {\n        nonces[req.from]++;\n    }\n\n    function registerRequestType(string calldata typeName, string calldata typeSuffix) external override {\n\n        for (uint i = 0; i < bytes(typeName).length; i++) {\n            bytes1 c = bytes(typeName)[i];\n            require(c != \"(\" && c != \")\", \"invalid typename\");\n        }\n\n        string memory requestType = string(abi.encodePacked(typeName, \"(\", GENERIC_PARAMS, \",\", typeSuffix));\n        registerRequestTypeInternal(requestType);\n    }\n\n    function registerDomainSeparator(string calldata name, string calldata version) external override {\n        uint256 chainId;\n        /* solhint-disable-next-line no-inline-assembly */\n        assembly { chainId := chainid() }\n\n        bytes memory domainValue = abi.encode(\n            keccak256(bytes(EIP712_DOMAIN_TYPE)),\n            keccak256(bytes(name)),\n            keccak256(bytes(version)),\n            chainId,\n            address(this));\n\n        bytes32 domainHash = keccak256(domainValue);\n\n        domains[domainHash] = true;\n        emit DomainRegistered(domainHash, domainValue);\n    }\n\n    function registerRequestTypeInternal(string memory requestType) internal {\n\n        bytes32 requestTypehash = keccak256(bytes(requestType));\n        typeHashes[requestTypehash] = true;\n        emit RequestTypeRegistered(requestTypehash, requestType);\n    }\n\n    event DomainRegistered(bytes32 indexed domainSeparator, bytes domainValue);\n\n    event RequestTypeRegistered(bytes32 indexed typeHash, string typeStr);\n\n\n    function _verifySig(\n        ForwardRequest memory req,\n        bytes32 domainSeparator,\n        bytes32 requestTypeHash,\n        bytes memory suffixData,\n        bytes memory sig)\n    internal\n    view\n    {\n        require(domains[domainSeparator], \"unregistered domain separator\");\n        require(typeHashes[requestTypeHash], \"unregistered request typehash\");\n        bytes32 digest = keccak256(abi.encodePacked(\n                \"\\x19\\x01\", domainSeparator,\n                keccak256(_getEncoded(req, requestTypeHash, suffixData))\n            ));\n        require(digest.recover(sig) == req.from, \"signature mismatch\");\n    }\n\n    function _getEncoded(\n        ForwardRequest memory req,\n        bytes32 requestTypeHash,\n        bytes memory suffixData\n    )\n    public\n    pure\n    returns (\n        bytes memory\n    ) {\n        return abi.encodePacked(\n            requestTypeHash,\n            abi.encode(\n                req.from,\n                req.to,\n                req.value,\n                req.gas,\n                req.nonce,\n                keccak256(req.data)\n            ),\n            suffixData\n        );\n    }\n}\n",
  "sourcePath": "@opengsn/gsn/contracts/forwarder/Forwarder.sol",
  "compiler": {
    "name": "solc",
    "version": "0.6.12+commit.27d51765.Emscripten.clang"
  },
  "schemaVersion": "3.3.3",
  "updatedAt": "2020-12-25T22:01:23.722Z",
  "devdoc": {
    "kind": "dev",
    "methods": {
      "registerDomainSeparator(string,string)": {
        "params": {
          "name": "the domain's display name",
          "version": "the domain/protocol version"
        }
      },
      "registerRequestType(string,string)": {
        "params": {
          "typeName": "- the name of the request type.",
          "typeSuffix": "- anything after the generic params can be empty string (if no extra fields are needed)        if it does contain a value, then a comma is added first."
        }
      }
    },
    "version": 1
  },
  "userdoc": {
    "kind": "user",
    "methods": {
      "registerDomainSeparator(string,string)": {
        "notice": "Register a new domain separator. The domain separator must have the following fields: name,version,chainId, verifyingContract. the chainId is the current network's chainId, and the verifyingContract is this forwarder. This method is given the domain name and version to create and register the domain separator value."
      },
      "registerRequestType(string,string)": {
        "notice": "Register a new Request typehash."
      }
    },
    "version": 1
  }
}